{
  "_format": "hh-sol-artifact-1",
  "contractName": "TodoList",
  "sourceName": "contracts/Todo.sol",
  "abi": [
    {
      "inputs": [],
      "stateMutability": "nonpayable",
      "type": "constructor"
    },
    {
      "inputs": [
        {
          "internalType": "string",
          "name": "_todo",
          "type": "string"
        }
      ],
      "name": "createTodo",
      "outputs": [],
      "stateMutability": "nonpayable",
      "type": "function"
    },
    {
      "inputs": [
        {
          "internalType": "string",
          "name": "_name",
          "type": "string"
        }
      ],
      "name": "createUser",
      "outputs": [],
      "stateMutability": "nonpayable",
      "type": "function"
    },
    {
      "inputs": [],
      "name": "getOwner",
      "outputs": [
        {
          "internalType": "address",
          "name": "",
          "type": "address"
        }
      ],
      "stateMutability": "view",
      "type": "function"
    },
    {
      "inputs": [],
      "name": "getUser",
      "outputs": [
        {
          "components": [
            {
              "internalType": "uint256",
              "name": "id",
              "type": "uint256"
            },
            {
              "internalType": "string",
              "name": "name",
              "type": "string"
            },
            {
              "components": [
                {
                  "internalType": "string",
                  "name": "id",
                  "type": "string"
                },
                {
                  "internalType": "string",
                  "name": "todo",
                  "type": "string"
                },
                {
                  "internalType": "bool",
                  "name": "completed",
                  "type": "bool"
                }
              ],
              "internalType": "struct TodoList.Todo[]",
              "name": "todos",
              "type": "tuple[]"
            },
            {
              "internalType": "uint256",
              "name": "todoCount",
              "type": "uint256"
            }
          ],
          "internalType": "struct TodoList.User",
          "name": "",
          "type": "tuple"
        }
      ],
      "stateMutability": "view",
      "type": "function"
    },
    {
      "inputs": [],
      "name": "owner",
      "outputs": [
        {
          "internalType": "address",
          "name": "",
          "type": "address"
        }
      ],
      "stateMutability": "view",
      "type": "function"
    },
    {
      "inputs": [
        {
          "internalType": "string",
          "name": "_id",
          "type": "string"
        },
        {
          "internalType": "bool",
          "name": "_completed",
          "type": "bool"
        }
      ],
      "name": "updateTodoStatus",
      "outputs": [],
      "stateMutability": "nonpayable",
      "type": "function"
    },
    {
      "inputs": [],
      "name": "userCount",
      "outputs": [
        {
          "internalType": "uint256",
          "name": "",
          "type": "uint256"
        }
      ],
      "stateMutability": "view",
      "type": "function"
    },
    {
      "inputs": [
        {
          "internalType": "address",
          "name": "",
          "type": "address"
        }
      ],
      "name": "users",
      "outputs": [
        {
          "internalType": "uint256",
          "name": "id",
          "type": "uint256"
        },
        {
          "internalType": "string",
          "name": "name",
          "type": "string"
        },
        {
          "internalType": "uint256",
          "name": "todoCount",
          "type": "uint256"
        }
      ],
      "stateMutability": "view",
      "type": "function"
    }
  ],
  "bytecode": "0x60806040526000805534801561001457600080fd5b5033600160006101000a81548173ffffffffffffffffffffffffffffffffffffffff021916908373ffffffffffffffffffffffffffffffffffffffff1602179055506116f5806100656000396000f3fe608060405234801561001057600080fd5b50600436106100885760003560e01c8063893d20e81161005b578063893d20e8146101015780638da5cb5b1461011f578063a87430ba1461013d578063e34f12211461016f57610088565b806307973ccf1461008d5780630c096467146100ab578063507ffba5146100c7578063832880e7146100e3575b600080fd5b61009561018b565b6040516100a29190610b60565b60405180910390f35b6100c560048036038101906100c09190610d0d565b610191565b005b6100e160048036038101906100dc9190610d69565b61032e565b005b6100eb610429565b6040516100f89190610fd2565b60405180910390f35b6101096106c4565b6040516101169190611035565b60405180910390f35b6101276106ee565b6040516101349190611035565b60405180910390f35b6101576004803603810190610152919061107c565b610714565b604051610166939291906110f3565b60405180910390f35b61018960048036038101906101849190610d69565b6107c6565b005b60005481565b60005b600260003373ffffffffffffffffffffffffffffffffffffffff1673ffffffffffffffffffffffffffffffffffffffff1681526020019081526020016000206002018054905081101561032957826040516020016101f2919061116d565b60405160208183030381529060405280519060200120600260003373ffffffffffffffffffffffffffffffffffffffff1673ffffffffffffffffffffffffffffffffffffffff168152602001908152602001600020600201828154811061025c5761025b611184565b5b906000526020600020906003020160000160405160200161027d91906112ab565b60405160208183030381529060405280519060200120036103165781600260003373ffffffffffffffffffffffffffffffffffffffff1673ffffffffffffffffffffffffffffffffffffffff16815260200190815260200160002060020182815481106102ed576102ec611184565b5b906000526020600020906003020160020160006101000a81548160ff0219169083151502179055505b8080610321906112f1565b915050610194565b505050565b600080815480929190610340906112f1565b9190505550600054600260003373ffffffffffffffffffffffffffffffffffffffff1673ffffffffffffffffffffffffffffffffffffffff1681526020019081526020016000206000018190555080600260003373ffffffffffffffffffffffffffffffffffffffff1673ffffffffffffffffffffffffffffffffffffffff16815260200190815260200160002060010190816103dd91906114d0565b506000600260003373ffffffffffffffffffffffffffffffffffffffff1673ffffffffffffffffffffffffffffffffffffffff1681526020019081526020016000206003018190555050565b610431610b1f565b600260003373ffffffffffffffffffffffffffffffffffffffff1673ffffffffffffffffffffffffffffffffffffffff16815260200190815260200160002060405180608001604052908160008201548152602001600182018054610495906111e2565b80601f01602080910402602001604051908101604052809291908181526020018280546104c1906111e2565b801561050e5780601f106104e35761010080835404028352916020019161050e565b820191906000526020600020905b8154815290600101906020018083116104f157829003601f168201915b5050505050815260200160028201805480602002602001604051908101604052809291908181526020016000905b828210156106ad578382906000526020600020906003020160405180606001604052908160008201805461056f906111e2565b80601f016020809104026020016040519081016040528092919081815260200182805461059b906111e2565b80156105e85780601f106105bd576101008083540402835291602001916105e8565b820191906000526020600020905b8154815290600101906020018083116105cb57829003601f168201915b50505050508152602001600182018054610601906111e2565b80601f016020809104026020016040519081016040528092919081815260200182805461062d906111e2565b801561067a5780601f1061064f5761010080835404028352916020019161067a565b820191906000526020600020905b81548152906001019060200180831161065d57829003601f168201915b505050505081526020016002820160009054906101000a900460ff1615151515815250508152602001906001019061053c565b505050508152602001600382015481525050905090565b6000600160009054906101000a900473ffffffffffffffffffffffffffffffffffffffff16905090565b600160009054906101000a900473ffffffffffffffffffffffffffffffffffffffff1681565b600260205280600052604060002060009150905080600001549080600101805461073d906111e2565b80601f0160208091040260200160405190810160405280929190818152602001828054610769906111e2565b80156107b65780601f1061078b576101008083540402835291602001916107b6565b820191906000526020600020905b81548152906001019060200180831161079957829003601f168201915b5050505050908060030154905083565b600260003373ffffffffffffffffffffffffffffffffffffffff1673ffffffffffffffffffffffffffffffffffffffff1681526020019081526020016000206003016000815480929190610819906112f1565b9190505550600061086b600260003373ffffffffffffffffffffffffffffffffffffffff1673ffffffffffffffffffffffffffffffffffffffff168152602001908152602001600020600001546109bf565b905060006108ba600260003373ffffffffffffffffffffffffffffffffffffffff1673ffffffffffffffffffffffffffffffffffffffff168152602001908152602001600020600301546109bf565b9050600082826040516020016108d19291906115a2565b6040516020818303038152906040529050600260003373ffffffffffffffffffffffffffffffffffffffff1673ffffffffffffffffffffffffffffffffffffffff1681526020019081526020016000206002016040518060600160405280838152602001868152602001600015158152509080600181540180825580915050600190039060005260206000209060030201600090919091909150600082015181600001908161098091906114d0565b50602082015181600101908161099691906114d0565b5060408201518160020160006101000a81548160ff021916908315150217905550505050505050565b606060008203610a06576040518060400160405280600181526020017f30000000000000000000000000000000000000000000000000000000000000008152509050610b1a565b600082905060005b60008214610a38578080610a21906112f1565b915050600a82610a3191906115f5565b9150610a0e565b60008167ffffffffffffffff811115610a5457610a53610baa565b5b6040519080825280601f01601f191660200182016040528015610a865781602001600182028036833780820191505090505b5090505b60008514610b1357600182610a9f9190611626565b9150600a85610aae919061165a565b6030610aba919061168b565b60f81b818381518110610ad057610acf611184565b5b60200101907effffffffffffffffffffffffffffffffffffffffffffffffffffffffffffff1916908160001a905350600a85610b0c91906115f5565b9450610a8a565b8093505050505b919050565b6040518060800160405280600081526020016060815260200160608152602001600081525090565b6000819050919050565b610b5a81610b47565b82525050565b6000602082019050610b756000830184610b51565b92915050565b6000604051905090565b600080fd5b600080fd5b600080fd5b600080fd5b6000601f19601f8301169050919050565b7f4e487b7100000000000000000000000000000000000000000000000000000000600052604160045260246000fd5b610be282610b99565b810181811067ffffffffffffffff82111715610c0157610c00610baa565b5b80604052505050565b6000610c14610b7b565b9050610c208282610bd9565b919050565b600067ffffffffffffffff821115610c4057610c3f610baa565b5b610c4982610b99565b9050602081019050919050565b82818337600083830152505050565b6000610c78610c7384610c25565b610c0a565b905082815260208101848484011115610c9457610c93610b94565b5b610c9f848285610c56565b509392505050565b600082601f830112610cbc57610cbb610b8f565b5b8135610ccc848260208601610c65565b91505092915050565b60008115159050919050565b610cea81610cd5565b8114610cf557600080fd5b50565b600081359050610d0781610ce1565b92915050565b60008060408385031215610d2457610d23610b85565b5b600083013567ffffffffffffffff811115610d4257610d41610b8a565b5b610d4e85828601610ca7565b9250506020610d5f85828601610cf8565b9150509250929050565b600060208284031215610d7f57610d7e610b85565b5b600082013567ffffffffffffffff811115610d9d57610d9c610b8a565b5b610da984828501610ca7565b91505092915050565b610dbb81610b47565b82525050565b600081519050919050565b600082825260208201905092915050565b60005b83811015610dfb578082015181840152602081019050610de0565b60008484015250505050565b6000610e1282610dc1565b610e1c8185610dcc565b9350610e2c818560208601610ddd565b610e3581610b99565b840191505092915050565b600081519050919050565b600082825260208201905092915050565b6000819050602082019050919050565b610e7581610cd5565b82525050565b60006060830160008301518482036000860152610e988282610e07565b91505060208301518482036020860152610eb28282610e07565b9150506040830151610ec76040860182610e6c565b508091505092915050565b6000610ede8383610e7b565b905092915050565b6000602082019050919050565b6000610efe82610e40565b610f088185610e4b565b935083602082028501610f1a85610e5c565b8060005b85811015610f565784840389528151610f378582610ed2565b9450610f4283610ee6565b925060208a01995050600181019050610f1e565b50829750879550505050505092915050565b6000608083016000830151610f806000860182610db2565b5060208301518482036020860152610f988282610e07565b91505060408301518482036040860152610fb28282610ef3565b9150506060830151610fc76060860182610db2565b508091505092915050565b60006020820190508181036000830152610fec8184610f68565b905092915050565b600073ffffffffffffffffffffffffffffffffffffffff82169050919050565b600061101f82610ff4565b9050919050565b61102f81611014565b82525050565b600060208201905061104a6000830184611026565b92915050565b61105981611014565b811461106457600080fd5b50565b60008135905061107681611050565b92915050565b60006020828403121561109257611091610b85565b5b60006110a084828501611067565b91505092915050565b600082825260208201905092915050565b60006110c582610dc1565b6110cf81856110a9565b93506110df818560208601610ddd565b6110e881610b99565b840191505092915050565b60006060820190506111086000830186610b51565b818103602083015261111a81856110ba565b90506111296040830184610b51565b949350505050565b600081905092915050565b600061114782610dc1565b6111518185611131565b9350611161818560208601610ddd565b80840191505092915050565b6000611179828461113c565b915081905092915050565b7f4e487b7100000000000000000000000000000000000000000000000000000000600052603260045260246000fd5b7f4e487b7100000000000000000000000000000000000000000000000000000000600052602260045260246000fd5b600060028204905060018216806111fa57607f821691505b60208210810361120d5761120c6111b3565b5b50919050565b60008190508160005260206000209050919050565b60008154611235816111e2565b61123f8186611131565b9450600182166000811461125a576001811461126f576112a2565b60ff19831686528115158202860193506112a2565b61127885611213565b60005b8381101561129a5781548189015260018201915060208101905061127b565b838801955050505b50505092915050565b60006112b78284611228565b915081905092915050565b7f4e487b7100000000000000000000000000000000000000000000000000000000600052601160045260246000fd5b60006112fc82610b47565b91507fffffffffffffffffffffffffffffffffffffffffffffffffffffffffffffffff820361132e5761132d6112c2565b5b600182019050919050565b60006020601f8301049050919050565b600082821b905092915050565b6000600883026113867fffffffffffffffffffffffffffffffffffffffffffffffffffffffffffffffff82611349565b6113908683611349565b95508019841693508086168417925050509392505050565b6000819050919050565b60006113cd6113c86113c384610b47565b6113a8565b610b47565b9050919050565b6000819050919050565b6113e7836113b2565b6113fb6113f3826113d4565b848454611356565b825550505050565b600090565b611410611403565b61141b8184846113de565b505050565b5b8181101561143f57611434600082611408565b600181019050611421565b5050565b601f8211156114845761145581611213565b61145e84611339565b8101602085101561146d578190505b61148161147985611339565b830182611420565b50505b505050565b600082821c905092915050565b60006114a760001984600802611489565b1980831691505092915050565b60006114c08383611496565b9150826002028217905092915050565b6114d982610dc1565b67ffffffffffffffff8111156114f2576114f1610baa565b5b6114fc82546111e2565b611507828285611443565b600060209050601f83116001811461153a5760008415611528578287015190505b61153285826114b4565b86555061159a565b601f19841661154886611213565b60005b828110156115705784890151825560018201915060208501945060208101905061154b565b8683101561158d5784890151611589601f891682611496565b8355505b6001600288020188555050505b505050505050565b60006115ae828561113c565b91506115ba828461113c565b91508190509392505050565b7f4e487b7100000000000000000000000000000000000000000000000000000000600052601260045260246000fd5b600061160082610b47565b915061160b83610b47565b92508261161b5761161a6115c6565b5b828204905092915050565b600061163182610b47565b915061163c83610b47565b9250828203905081811115611654576116536112c2565b5b92915050565b600061166582610b47565b915061167083610b47565b9250826116805761167f6115c6565b5b828206905092915050565b600061169682610b47565b91506116a183610b47565b92508282019050808211156116b9576116b86112c2565b5b9291505056fea26469706673582212206973dbcff41640ae03e4ef917e55f4ad01d0a2aa5a18341ce604fe897b871edd64736f6c63430008110033",
  "linkReferences": {},
  "deployedLinkReferences": {}
}