{
  "_format": "hh-sol-artifact-1",
  "contractName": "TodoList",
  "sourceName": "contracts/Todo.sol",
  "abi": [
    {
      "inputs": [
        {
          "internalType": "string",
          "name": "_todo",
          "type": "string"
        }
      ],
      "name": "createTodo",
      "outputs": [],
      "stateMutability": "nonpayable",
      "type": "function"
    },
    {
      "inputs": [
        {
          "internalType": "string",
          "name": "_name",
          "type": "string"
        }
      ],
      "name": "createUser",
      "outputs": [],
      "stateMutability": "nonpayable",
      "type": "function"
    },
    {
      "inputs": [],
      "name": "getUser",
      "outputs": [
        {
          "components": [
            {
              "internalType": "uint256",
              "name": "id",
              "type": "uint256"
            },
            {
              "internalType": "string",
              "name": "name",
              "type": "string"
            },
            {
              "components": [
                {
                  "internalType": "string",
                  "name": "id",
                  "type": "string"
                },
                {
                  "internalType": "string",
                  "name": "todo",
                  "type": "string"
                },
                {
                  "internalType": "bool",
                  "name": "completed",
                  "type": "bool"
                }
              ],
              "internalType": "struct TodoList.Todo[]",
              "name": "todos",
              "type": "tuple[]"
            },
            {
              "internalType": "uint256",
              "name": "todoCount",
              "type": "uint256"
            }
          ],
          "internalType": "struct TodoList.User",
          "name": "",
          "type": "tuple"
        }
      ],
      "stateMutability": "view",
      "type": "function"
    },
    {
      "inputs": [
        {
          "internalType": "string",
          "name": "_id",
          "type": "string"
        },
        {
          "internalType": "bool",
          "name": "_completed",
          "type": "bool"
        }
      ],
      "name": "updateTodoStatus",
      "outputs": [],
      "stateMutability": "nonpayable",
      "type": "function"
    },
    {
      "inputs": [],
      "name": "userCount",
      "outputs": [
        {
          "internalType": "uint256",
          "name": "",
          "type": "uint256"
        }
      ],
      "stateMutability": "view",
      "type": "function"
    },
    {
      "inputs": [
        {
          "internalType": "address",
          "name": "",
          "type": "address"
        }
      ],
      "name": "users",
      "outputs": [
        {
          "internalType": "uint256",
          "name": "id",
          "type": "uint256"
        },
        {
          "internalType": "string",
          "name": "name",
          "type": "string"
        },
        {
          "internalType": "uint256",
          "name": "todoCount",
          "type": "uint256"
        }
      ],
      "stateMutability": "view",
      "type": "function"
    }
  ],
  "bytecode": "0x60806040526000805534801561001457600080fd5b50611619806100246000396000f3fe608060405234801561001057600080fd5b50600436106100625760003560e01c806307973ccf146100675780630c09646714610085578063507ffba5146100a1578063832880e7146100bd578063a87430ba146100db578063e34f12211461010d575b600080fd5b61006f610129565b60405161007c9190610aae565b60405180910390f35b61009f600480360381019061009a9190610c5b565b61012f565b005b6100bb60048036038101906100b69190610cb7565b6102cc565b005b6100c56103c7565b6040516100d29190610f20565b60405180910390f35b6100f560048036038101906100f09190610fa0565b610662565b60405161010493929190611017565b60405180910390f35b61012760048036038101906101229190610cb7565b610714565b005b60005481565b60005b600160003373ffffffffffffffffffffffffffffffffffffffff1673ffffffffffffffffffffffffffffffffffffffff168152602001908152602001600020600201805490508110156102c757826040516020016101909190611091565b60405160208183030381529060405280519060200120600160003373ffffffffffffffffffffffffffffffffffffffff1673ffffffffffffffffffffffffffffffffffffffff16815260200190815260200160002060020182815481106101fa576101f96110a8565b5b906000526020600020906003020160000160405160200161021b91906111cf565b60405160208183030381529060405280519060200120036102b45781600160003373ffffffffffffffffffffffffffffffffffffffff1673ffffffffffffffffffffffffffffffffffffffff168152602001908152602001600020600201828154811061028b5761028a6110a8565b5b906000526020600020906003020160020160006101000a81548160ff0219169083151502179055505b80806102bf90611215565b915050610132565b505050565b6000808154809291906102de90611215565b9190505550600054600160003373ffffffffffffffffffffffffffffffffffffffff1673ffffffffffffffffffffffffffffffffffffffff1681526020019081526020016000206000018190555080600160003373ffffffffffffffffffffffffffffffffffffffff1673ffffffffffffffffffffffffffffffffffffffff168152602001908152602001600020600101908161037b91906113f4565b506000600160003373ffffffffffffffffffffffffffffffffffffffff1673ffffffffffffffffffffffffffffffffffffffff1681526020019081526020016000206003018190555050565b6103cf610a6d565b600160003373ffffffffffffffffffffffffffffffffffffffff1673ffffffffffffffffffffffffffffffffffffffff1681526020019081526020016000206040518060800160405290816000820154815260200160018201805461043390611106565b80601f016020809104026020016040519081016040528092919081815260200182805461045f90611106565b80156104ac5780601f10610481576101008083540402835291602001916104ac565b820191906000526020600020905b81548152906001019060200180831161048f57829003601f168201915b5050505050815260200160028201805480602002602001604051908101604052809291908181526020016000905b8282101561064b578382906000526020600020906003020160405180606001604052908160008201805461050d90611106565b80601f016020809104026020016040519081016040528092919081815260200182805461053990611106565b80156105865780601f1061055b57610100808354040283529160200191610586565b820191906000526020600020905b81548152906001019060200180831161056957829003601f168201915b5050505050815260200160018201805461059f90611106565b80601f01602080910402602001604051908101604052809291908181526020018280546105cb90611106565b80156106185780601f106105ed57610100808354040283529160200191610618565b820191906000526020600020905b8154815290600101906020018083116105fb57829003601f168201915b505050505081526020016002820160009054906101000a900460ff161515151581525050815260200190600101906104da565b505050508152602001600382015481525050905090565b600160205280600052604060002060009150905080600001549080600101805461068b90611106565b80601f01602080910402602001604051908101604052809291908181526020018280546106b790611106565b80156107045780601f106106d957610100808354040283529160200191610704565b820191906000526020600020905b8154815290600101906020018083116106e757829003601f168201915b5050505050908060030154905083565b600160003373ffffffffffffffffffffffffffffffffffffffff1673ffffffffffffffffffffffffffffffffffffffff168152602001908152602001600020600301600081548092919061076790611215565b919050555060006107b9600160003373ffffffffffffffffffffffffffffffffffffffff1673ffffffffffffffffffffffffffffffffffffffff1681526020019081526020016000206000015461090d565b90506000610808600160003373ffffffffffffffffffffffffffffffffffffffff1673ffffffffffffffffffffffffffffffffffffffff1681526020019081526020016000206003015461090d565b90506000828260405160200161081f9291906114c6565b6040516020818303038152906040529050600160003373ffffffffffffffffffffffffffffffffffffffff1673ffffffffffffffffffffffffffffffffffffffff168152602001908152602001600020600201604051806060016040528083815260200186815260200160001515815250908060018154018082558091505060019003906000526020600020906003020160009091909190915060008201518160000190816108ce91906113f4565b5060208201518160010190816108e491906113f4565b5060408201518160020160006101000a81548160ff021916908315150217905550505050505050565b606060008203610954576040518060400160405280600181526020017f30000000000000000000000000000000000000000000000000000000000000008152509050610a68565b600082905060005b6000821461098657808061096f90611215565b915050600a8261097f9190611519565b915061095c565b60008167ffffffffffffffff8111156109a2576109a1610af8565b5b6040519080825280601f01601f1916602001820160405280156109d45781602001600182028036833780820191505090505b5090505b60008514610a61576001826109ed919061154a565b9150600a856109fc919061157e565b6030610a0891906115af565b60f81b818381518110610a1e57610a1d6110a8565b5b60200101907effffffffffffffffffffffffffffffffffffffffffffffffffffffffffffff1916908160001a905350600a85610a5a9190611519565b94506109d8565b8093505050505b919050565b6040518060800160405280600081526020016060815260200160608152602001600081525090565b6000819050919050565b610aa881610a95565b82525050565b6000602082019050610ac36000830184610a9f565b92915050565b6000604051905090565b600080fd5b600080fd5b600080fd5b600080fd5b6000601f19601f8301169050919050565b7f4e487b7100000000000000000000000000000000000000000000000000000000600052604160045260246000fd5b610b3082610ae7565b810181811067ffffffffffffffff82111715610b4f57610b4e610af8565b5b80604052505050565b6000610b62610ac9565b9050610b6e8282610b27565b919050565b600067ffffffffffffffff821115610b8e57610b8d610af8565b5b610b9782610ae7565b9050602081019050919050565b82818337600083830152505050565b6000610bc6610bc184610b73565b610b58565b905082815260208101848484011115610be257610be1610ae2565b5b610bed848285610ba4565b509392505050565b600082601f830112610c0a57610c09610add565b5b8135610c1a848260208601610bb3565b91505092915050565b60008115159050919050565b610c3881610c23565b8114610c4357600080fd5b50565b600081359050610c5581610c2f565b92915050565b60008060408385031215610c7257610c71610ad3565b5b600083013567ffffffffffffffff811115610c9057610c8f610ad8565b5b610c9c85828601610bf5565b9250506020610cad85828601610c46565b9150509250929050565b600060208284031215610ccd57610ccc610ad3565b5b600082013567ffffffffffffffff811115610ceb57610cea610ad8565b5b610cf784828501610bf5565b91505092915050565b610d0981610a95565b82525050565b600081519050919050565b600082825260208201905092915050565b60005b83811015610d49578082015181840152602081019050610d2e565b60008484015250505050565b6000610d6082610d0f565b610d6a8185610d1a565b9350610d7a818560208601610d2b565b610d8381610ae7565b840191505092915050565b600081519050919050565b600082825260208201905092915050565b6000819050602082019050919050565b610dc381610c23565b82525050565b60006060830160008301518482036000860152610de68282610d55565b91505060208301518482036020860152610e008282610d55565b9150506040830151610e156040860182610dba565b508091505092915050565b6000610e2c8383610dc9565b905092915050565b6000602082019050919050565b6000610e4c82610d8e565b610e568185610d99565b935083602082028501610e6885610daa565b8060005b85811015610ea45784840389528151610e858582610e20565b9450610e9083610e34565b925060208a01995050600181019050610e6c565b50829750879550505050505092915050565b6000608083016000830151610ece6000860182610d00565b5060208301518482036020860152610ee68282610d55565b91505060408301518482036040860152610f008282610e41565b9150506060830151610f156060860182610d00565b508091505092915050565b60006020820190508181036000830152610f3a8184610eb6565b905092915050565b600073ffffffffffffffffffffffffffffffffffffffff82169050919050565b6000610f6d82610f42565b9050919050565b610f7d81610f62565b8114610f8857600080fd5b50565b600081359050610f9a81610f74565b92915050565b600060208284031215610fb657610fb5610ad3565b5b6000610fc484828501610f8b565b91505092915050565b600082825260208201905092915050565b6000610fe982610d0f565b610ff38185610fcd565b9350611003818560208601610d2b565b61100c81610ae7565b840191505092915050565b600060608201905061102c6000830186610a9f565b818103602083015261103e8185610fde565b905061104d6040830184610a9f565b949350505050565b600081905092915050565b600061106b82610d0f565b6110758185611055565b9350611085818560208601610d2b565b80840191505092915050565b600061109d8284611060565b915081905092915050565b7f4e487b7100000000000000000000000000000000000000000000000000000000600052603260045260246000fd5b7f4e487b7100000000000000000000000000000000000000000000000000000000600052602260045260246000fd5b6000600282049050600182168061111e57607f821691505b602082108103611131576111306110d7565b5b50919050565b60008190508160005260206000209050919050565b6000815461115981611106565b6111638186611055565b9450600182166000811461117e5760018114611193576111c6565b60ff19831686528115158202860193506111c6565b61119c85611137565b60005b838110156111be5781548189015260018201915060208101905061119f565b838801955050505b50505092915050565b60006111db828461114c565b915081905092915050565b7f4e487b7100000000000000000000000000000000000000000000000000000000600052601160045260246000fd5b600061122082610a95565b91507fffffffffffffffffffffffffffffffffffffffffffffffffffffffffffffffff8203611252576112516111e6565b5b600182019050919050565b60006020601f8301049050919050565b600082821b905092915050565b6000600883026112aa7fffffffffffffffffffffffffffffffffffffffffffffffffffffffffffffffff8261126d565b6112b4868361126d565b95508019841693508086168417925050509392505050565b6000819050919050565b60006112f16112ec6112e784610a95565b6112cc565b610a95565b9050919050565b6000819050919050565b61130b836112d6565b61131f611317826112f8565b84845461127a565b825550505050565b600090565b611334611327565b61133f818484611302565b505050565b5b818110156113635761135860008261132c565b600181019050611345565b5050565b601f8211156113a85761137981611137565b6113828461125d565b81016020851015611391578190505b6113a561139d8561125d565b830182611344565b50505b505050565b600082821c905092915050565b60006113cb600019846008026113ad565b1980831691505092915050565b60006113e483836113ba565b9150826002028217905092915050565b6113fd82610d0f565b67ffffffffffffffff81111561141657611415610af8565b5b6114208254611106565b61142b828285611367565b600060209050601f83116001811461145e576000841561144c578287015190505b61145685826113d8565b8655506114be565b601f19841661146c86611137565b60005b828110156114945784890151825560018201915060208501945060208101905061146f565b868310156114b157848901516114ad601f8916826113ba565b8355505b6001600288020188555050505b505050505050565b60006114d28285611060565b91506114de8284611060565b91508190509392505050565b7f4e487b7100000000000000000000000000000000000000000000000000000000600052601260045260246000fd5b600061152482610a95565b915061152f83610a95565b92508261153f5761153e6114ea565b5b828204905092915050565b600061155582610a95565b915061156083610a95565b9250828203905081811115611578576115776111e6565b5b92915050565b600061158982610a95565b915061159483610a95565b9250826115a4576115a36114ea565b5b828206905092915050565b60006115ba82610a95565b91506115c583610a95565b92508282019050808211156115dd576115dc6111e6565b5b9291505056fea2646970667358221220c61c47cd460a3b1763e8329838e1db960ee76f07ad09cee9dffa9aad8cb93b0464736f6c63430008110033",
  "linkReferences": {},
  "deployedLinkReferences": {}
}