{
  "_format": "hh-sol-artifact-1",
  "contractName": "TodoList",
  "sourceName": "contracts/Todo.sol",
  "abi": [
    {
      "inputs": [],
      "stateMutability": "nonpayable",
      "type": "constructor"
    },
    {
      "inputs": [
        {
          "internalType": "string",
          "name": "_todo",
          "type": "string"
        }
      ],
      "name": "createTodo",
      "outputs": [],
      "stateMutability": "nonpayable",
      "type": "function"
    },
    {
      "inputs": [
        {
          "internalType": "string",
          "name": "_name",
          "type": "string"
        }
      ],
      "name": "createUser",
      "outputs": [],
      "stateMutability": "nonpayable",
      "type": "function"
    },
    {
      "inputs": [],
      "name": "getOwner",
      "outputs": [
        {
          "internalType": "address",
          "name": "",
          "type": "address"
        }
      ],
      "stateMutability": "view",
      "type": "function"
    },
    {
      "inputs": [],
      "name": "getUser",
      "outputs": [
        {
          "components": [
            {
              "internalType": "uint256",
              "name": "id",
              "type": "uint256"
            },
            {
              "internalType": "string",
              "name": "name",
              "type": "string"
            },
            {
              "components": [
                {
                  "internalType": "string",
                  "name": "id",
                  "type": "string"
                },
                {
                  "internalType": "string",
                  "name": "todo",
                  "type": "string"
                },
                {
                  "internalType": "bool",
                  "name": "completed",
                  "type": "bool"
                }
              ],
              "internalType": "struct TodoList.Todo[]",
              "name": "todos",
              "type": "tuple[]"
            },
            {
              "internalType": "uint256",
              "name": "todoCount",
              "type": "uint256"
            }
          ],
          "internalType": "struct TodoList.User",
          "name": "",
          "type": "tuple"
        }
      ],
      "stateMutability": "view",
      "type": "function"
    },
    {
      "inputs": [],
      "name": "owner",
      "outputs": [
        {
          "internalType": "address",
          "name": "",
          "type": "address"
        }
      ],
      "stateMutability": "view",
      "type": "function"
    },
    {
      "inputs": [
        {
          "internalType": "string",
          "name": "_id",
          "type": "string"
        },
        {
          "internalType": "bool",
          "name": "_completed",
          "type": "bool"
        }
      ],
      "name": "updateTodoStatus",
      "outputs": [],
      "stateMutability": "nonpayable",
      "type": "function"
    },
    {
      "inputs": [],
      "name": "userCount",
      "outputs": [
        {
          "internalType": "uint256",
          "name": "",
          "type": "uint256"
        }
      ],
      "stateMutability": "view",
      "type": "function"
    },
    {
      "inputs": [
        {
          "internalType": "address",
          "name": "",
          "type": "address"
        }
      ],
      "name": "users",
      "outputs": [
        {
          "internalType": "uint256",
          "name": "id",
          "type": "uint256"
        },
        {
          "internalType": "string",
          "name": "name",
          "type": "string"
        },
        {
          "internalType": "uint256",
          "name": "todoCount",
          "type": "uint256"
        }
      ],
      "stateMutability": "view",
      "type": "function"
    }
  ],
  "bytecode": "0x60806040526000805534801561001457600080fd5b5033600160006101000a81548173ffffffffffffffffffffffffffffffffffffffff021916908373ffffffffffffffffffffffffffffffffffffffff1602179055506117c2806100656000396000f3fe608060405234801561001057600080fd5b50600436106100885760003560e01c8063893d20e81161005b578063893d20e8146101015780638da5cb5b1461011f578063a87430ba1461013d578063e34f12211461016f57610088565b806307973ccf1461008d5780630c096467146100ab578063507ffba5146100c7578063832880e7146100e3575b600080fd5b61009561018b565b6040516100a29190610c2d565b60405180910390f35b6100c560048036038101906100c09190610dda565b610191565b005b6100e160048036038101906100dc9190610e36565b61032e565b005b6100eb610434565b6040516100f8919061109f565b60405180910390f35b6101096106cf565b6040516101169190611102565b60405180910390f35b6101276106f9565b6040516101349190611102565b60405180910390f35b61015760048036038101906101529190611149565b61071f565b604051610166939291906111c0565b60405180910390f35b61018960048036038101906101849190610e36565b6107d1565b005b60005481565b60005b600260003373ffffffffffffffffffffffffffffffffffffffff1673ffffffffffffffffffffffffffffffffffffffff1681526020019081526020016000206002018054905081101561032957826040516020016101f2919061123a565b60405160208183030381529060405280519060200120600260003373ffffffffffffffffffffffffffffffffffffffff1673ffffffffffffffffffffffffffffffffffffffff168152602001908152602001600020600201828154811061025c5761025b611251565b5b906000526020600020906003020160000160405160200161027d9190611378565b60405160208183030381529060405280519060200120036103165781600260003373ffffffffffffffffffffffffffffffffffffffff1673ffffffffffffffffffffffffffffffffffffffff16815260200190815260200160002060020182815481106102ed576102ec611251565b5b906000526020600020906003020160020160006101000a81548160ff0219169083151502179055505b8080610321906113be565b915050610194565b505050565b600080815480929190610340906113be565b91905055506103506000546109ca565b600054600260003373ffffffffffffffffffffffffffffffffffffffff1673ffffffffffffffffffffffffffffffffffffffff1681526020019081526020016000206000018190555080600260003373ffffffffffffffffffffffffffffffffffffffff1673ffffffffffffffffffffffffffffffffffffffff16815260200190815260200160002060010190816103e8919061159d565b506000600260003373ffffffffffffffffffffffffffffffffffffffff1673ffffffffffffffffffffffffffffffffffffffff1681526020019081526020016000206003018190555050565b61043c610bec565b600260003373ffffffffffffffffffffffffffffffffffffffff1673ffffffffffffffffffffffffffffffffffffffff168152602001908152602001600020604051806080016040529081600082015481526020016001820180546104a0906112af565b80601f01602080910402602001604051908101604052809291908181526020018280546104cc906112af565b80156105195780601f106104ee57610100808354040283529160200191610519565b820191906000526020600020905b8154815290600101906020018083116104fc57829003601f168201915b5050505050815260200160028201805480602002602001604051908101604052809291908181526020016000905b828210156106b8578382906000526020600020906003020160405180606001604052908160008201805461057a906112af565b80601f01602080910402602001604051908101604052809291908181526020018280546105a6906112af565b80156105f35780601f106105c8576101008083540402835291602001916105f3565b820191906000526020600020905b8154815290600101906020018083116105d657829003601f168201915b5050505050815260200160018201805461060c906112af565b80601f0160208091040260200160405190810160405280929190818152602001828054610638906112af565b80156106855780601f1061065a57610100808354040283529160200191610685565b820191906000526020600020905b81548152906001019060200180831161066857829003601f168201915b505050505081526020016002820160009054906101000a900460ff16151515158152505081526020019060010190610547565b505050508152602001600382015481525050905090565b6000600160009054906101000a900473ffffffffffffffffffffffffffffffffffffffff16905090565b600160009054906101000a900473ffffffffffffffffffffffffffffffffffffffff1681565b6002602052806000526040600020600091509050806000015490806001018054610748906112af565b80601f0160208091040260200160405190810160405280929190818152602001828054610774906112af565b80156107c15780601f10610796576101008083540402835291602001916107c1565b820191906000526020600020905b8154815290600101906020018083116107a457829003601f168201915b5050505050908060030154905083565b600260003373ffffffffffffffffffffffffffffffffffffffff1673ffffffffffffffffffffffffffffffffffffffff1681526020019081526020016000206003016000815480929190610824906113be565b91905055506000610876600260003373ffffffffffffffffffffffffffffffffffffffff1673ffffffffffffffffffffffffffffffffffffffff16815260200190815260200160002060000154610a63565b905060006108c5600260003373ffffffffffffffffffffffffffffffffffffffff1673ffffffffffffffffffffffffffffffffffffffff16815260200190815260200160002060030154610a63565b9050600082826040516020016108dc92919061166f565b6040516020818303038152906040529050600260003373ffffffffffffffffffffffffffffffffffffffff1673ffffffffffffffffffffffffffffffffffffffff1681526020019081526020016000206002016040518060600160405280838152602001868152602001600015158152509080600181540180825580915050600190039060005260206000209060030201600090919091909150600082015181600001908161098b919061159d565b5060208201518160010190816109a1919061159d565b5060408201518160020160006101000a81548160ff021916908315150217905550505050505050565b610a60816040516024016109de9190610c2d565b6040516020818303038152906040527ff82c50f1000000000000000000000000000000000000000000000000000000007bffffffffffffffffffffffffffffffffffffffffffffffffffffffff19166020820180517bffffffffffffffffffffffffffffffffffffffffffffffffffffffff8381831617835250505050610bc3565b50565b606060008203610aaa576040518060400160405280600181526020017f30000000000000000000000000000000000000000000000000000000000000008152509050610bbe565b600082905060005b60008214610adc578080610ac5906113be565b915050600a82610ad591906116c2565b9150610ab2565b60008167ffffffffffffffff811115610af857610af7610c77565b5b6040519080825280601f01601f191660200182016040528015610b2a5781602001600182028036833780820191505090505b5090505b60008514610bb757600182610b4391906116f3565b9150600a85610b529190611727565b6030610b5e9190611758565b60f81b818381518110610b7457610b73611251565b5b60200101907effffffffffffffffffffffffffffffffffffffffffffffffffffffffffffff1916908160001a905350600a85610bb091906116c2565b9450610b2e565b8093505050505b919050565b60008151905060006a636f6e736f6c652e6c6f679050602083016000808483855afa5050505050565b6040518060800160405280600081526020016060815260200160608152602001600081525090565b6000819050919050565b610c2781610c14565b82525050565b6000602082019050610c426000830184610c1e565b92915050565b6000604051905090565b600080fd5b600080fd5b600080fd5b600080fd5b6000601f19601f8301169050919050565b7f4e487b7100000000000000000000000000000000000000000000000000000000600052604160045260246000fd5b610caf82610c66565b810181811067ffffffffffffffff82111715610cce57610ccd610c77565b5b80604052505050565b6000610ce1610c48565b9050610ced8282610ca6565b919050565b600067ffffffffffffffff821115610d0d57610d0c610c77565b5b610d1682610c66565b9050602081019050919050565b82818337600083830152505050565b6000610d45610d4084610cf2565b610cd7565b905082815260208101848484011115610d6157610d60610c61565b5b610d6c848285610d23565b509392505050565b600082601f830112610d8957610d88610c5c565b5b8135610d99848260208601610d32565b91505092915050565b60008115159050919050565b610db781610da2565b8114610dc257600080fd5b50565b600081359050610dd481610dae565b92915050565b60008060408385031215610df157610df0610c52565b5b600083013567ffffffffffffffff811115610e0f57610e0e610c57565b5b610e1b85828601610d74565b9250506020610e2c85828601610dc5565b9150509250929050565b600060208284031215610e4c57610e4b610c52565b5b600082013567ffffffffffffffff811115610e6a57610e69610c57565b5b610e7684828501610d74565b91505092915050565b610e8881610c14565b82525050565b600081519050919050565b600082825260208201905092915050565b60005b83811015610ec8578082015181840152602081019050610ead565b60008484015250505050565b6000610edf82610e8e565b610ee98185610e99565b9350610ef9818560208601610eaa565b610f0281610c66565b840191505092915050565b600081519050919050565b600082825260208201905092915050565b6000819050602082019050919050565b610f4281610da2565b82525050565b60006060830160008301518482036000860152610f658282610ed4565b91505060208301518482036020860152610f7f8282610ed4565b9150506040830151610f946040860182610f39565b508091505092915050565b6000610fab8383610f48565b905092915050565b6000602082019050919050565b6000610fcb82610f0d565b610fd58185610f18565b935083602082028501610fe785610f29565b8060005b8581101561102357848403895281516110048582610f9f565b945061100f83610fb3565b925060208a01995050600181019050610feb565b50829750879550505050505092915050565b600060808301600083015161104d6000860182610e7f565b50602083015184820360208601526110658282610ed4565b9150506040830151848203604086015261107f8282610fc0565b91505060608301516110946060860182610e7f565b508091505092915050565b600060208201905081810360008301526110b98184611035565b905092915050565b600073ffffffffffffffffffffffffffffffffffffffff82169050919050565b60006110ec826110c1565b9050919050565b6110fc816110e1565b82525050565b600060208201905061111760008301846110f3565b92915050565b611126816110e1565b811461113157600080fd5b50565b6000813590506111438161111d565b92915050565b60006020828403121561115f5761115e610c52565b5b600061116d84828501611134565b91505092915050565b600082825260208201905092915050565b600061119282610e8e565b61119c8185611176565b93506111ac818560208601610eaa565b6111b581610c66565b840191505092915050565b60006060820190506111d56000830186610c1e565b81810360208301526111e78185611187565b90506111f66040830184610c1e565b949350505050565b600081905092915050565b600061121482610e8e565b61121e81856111fe565b935061122e818560208601610eaa565b80840191505092915050565b60006112468284611209565b915081905092915050565b7f4e487b7100000000000000000000000000000000000000000000000000000000600052603260045260246000fd5b7f4e487b7100000000000000000000000000000000000000000000000000000000600052602260045260246000fd5b600060028204905060018216806112c757607f821691505b6020821081036112da576112d9611280565b5b50919050565b60008190508160005260206000209050919050565b60008154611302816112af565b61130c81866111fe565b94506001821660008114611327576001811461133c5761136f565b60ff198316865281151582028601935061136f565b611345856112e0565b60005b8381101561136757815481890152600182019150602081019050611348565b838801955050505b50505092915050565b600061138482846112f5565b915081905092915050565b7f4e487b7100000000000000000000000000000000000000000000000000000000600052601160045260246000fd5b60006113c982610c14565b91507fffffffffffffffffffffffffffffffffffffffffffffffffffffffffffffffff82036113fb576113fa61138f565b5b600182019050919050565b60006020601f8301049050919050565b600082821b905092915050565b6000600883026114537fffffffffffffffffffffffffffffffffffffffffffffffffffffffffffffffff82611416565b61145d8683611416565b95508019841693508086168417925050509392505050565b6000819050919050565b600061149a61149561149084610c14565b611475565b610c14565b9050919050565b6000819050919050565b6114b48361147f565b6114c86114c0826114a1565b848454611423565b825550505050565b600090565b6114dd6114d0565b6114e88184846114ab565b505050565b5b8181101561150c576115016000826114d5565b6001810190506114ee565b5050565b601f82111561155157611522816112e0565b61152b84611406565b8101602085101561153a578190505b61154e61154685611406565b8301826114ed565b50505b505050565b600082821c905092915050565b600061157460001984600802611556565b1980831691505092915050565b600061158d8383611563565b9150826002028217905092915050565b6115a682610e8e565b67ffffffffffffffff8111156115bf576115be610c77565b5b6115c982546112af565b6115d4828285611510565b600060209050601f83116001811461160757600084156115f5578287015190505b6115ff8582611581565b865550611667565b601f198416611615866112e0565b60005b8281101561163d57848901518255600182019150602085019450602081019050611618565b8683101561165a5784890151611656601f891682611563565b8355505b6001600288020188555050505b505050505050565b600061167b8285611209565b91506116878284611209565b91508190509392505050565b7f4e487b7100000000000000000000000000000000000000000000000000000000600052601260045260246000fd5b60006116cd82610c14565b91506116d883610c14565b9250826116e8576116e7611693565b5b828204905092915050565b60006116fe82610c14565b915061170983610c14565b92508282039050818111156117215761172061138f565b5b92915050565b600061173282610c14565b915061173d83610c14565b92508261174d5761174c611693565b5b828206905092915050565b600061176382610c14565b915061176e83610c14565b92508282019050808211156117865761178561138f565b5b9291505056fea2646970667358221220d157c2f1b1734fd2df8847630375b0c317a1476c963d7e98c1823560d380714564736f6c63430008110033",
  "linkReferences": {},
  "deployedLinkReferences": {}
}